:020000040800F2
:1000000000800120051900080118000809180008DF
:100010001118000819180008211800080000000035
:100020000000000000000000000000002918000887
:100030003718000800000000451800085318000891
:1000400055190008551900085519000855190008D8
:1000500055190008551900085519000855190008C8
:1000600055190008551900085519000855190008B8
:1000700055190008551900085519000855190008A8
:10008000551900085519000855190008000000000E
:1000900000000000000000000000000055190008EA
:1000A0005519000855190008551900085519000878
:1000B000611800085519000855190008551900085D
:1000C0005519000855190008551900085519000858
:1000D00055190008551900085519000800000000BE
:1000E00055190008551900085519000800000000AE
:1000F000000000000000000000000000551900088A
:10010000000000005519000855190008551900088D
:1001100000000000000000000000000000000000DF
:1001200055190008551900085519000855190008F7
:100130005519000800000000000000000000000049
:100140000000000000000000000000005519000839
:1001500055190008551900085519000855190008C7
:1001600055190008551900080000000000000000A3
:10017000000000000000000000000000000000007F
:1001800000000000551900080000000000000000F9
:0401900055190008F5
:1001A00010B5054C237833B9044B13B10448AFF3B1
:1001B00000800123237010BDBC000020000000005F
:1001C000B443000808B5034B1BB103490348AFF320
:1001D000008008BD00000000C0000020B4430008FB
:1001E00001F0FF01102A2BDB10F0070F08D010F8E8
:1001F000013B013A8B422DD010F0070F42B3F6D1EC
:10020000F0B441EA012141EA014122F007047FF004
:1002100000070023F0E80256083C85EA010586EA5B
:10022000010685FA47F5A3FA87F586FA47F6A5FA97
:1002300087F68EB9EED1F0BC01F0FF0102F00702A3
:1002400032B110F8013B013A83EA010313B1F8D14E
:100250000020704701387047002D06BF354603382F
:10026000073815F0010F07D1013015F4807F02BF68
:10027000013015F4C03F0130F0BC0138704700BFB9
:1002800053B94AB9002908BF00281CBF4FF0FF31FD
:100290004FF0FF3000F088B9ADF1080C6DE904CEE5
:1002A00000F006F8DDF804E0DDE9022304B0704751
:1002B0002DE9F047089D8E4604468846002B4AD11A
:1002C0008A42174662D9B2FA82F64EB1C6F12003CD
:1002D00001FA06F820FA03F3B74043EA0808B440ED
:1002E0004FEA174E1FFA87FCB8FBFEF1230C0EFBFA
:1002F000118843EA084301FB0CF29A4209D9FB1822
:1003000001F1FF3080F0EA809A4240F2E780023942
:100310003B449A1AA3B2B2FBFEF00EFB102243EA52
:10032000024300FB0CFC9C4509D9FB1800F1FF328D
:1003300080F0D6809C4540F2D3803B44023840EAAE
:100340000140A3EB0C0300211DB1F3400022C5E9DD
:100350000032BDE8F0878B4205D90DB1C5E9000137
:1003600000210846F5E7B3FA83F1002946D1734529
:1003700002D3824200F20581841A6EEB030201204F
:100380009046002DE5D0C5E90048E2E7002A00F0DC
:100390009080B2FA82F6002E40F0A4808A1A030CF4
:1003A0004FEA174E80B2BCB20121B2FBFEFC0EFB3D
:1003B0001C2243EA024304FB0CF29A4207D9FB18C1
:1003C0000CF1FF3802D29A4200F2E080C4469B1A38
:1003D000B3FBFEF20EFB123340EA034302FB04F4CC
:1003E0009C4207D9FB1802F1FF3002D29C4200F276
:1003F000CA8002461B1B42EA0C40A5E7C1F1200659
:100400008B4022FA06F71F430EFA01F420FA06F396
:100410002EFA06FE4FEA1749234300FA01F81FFAA5
:1004200087FCBEFBF9F01C0C09FB10EE44EA0E44FD
:1004300000FB0CFEA64502FA01F209D93C1900F1B5
:10044000FF3A80F09C80A64540F2998002383C44F7
:10045000A4EB0E041FFA83FEB4FBF9F309FB13446B
:100460004EEA044403FB0CFCA44508D93C1903F1F3
:10047000FF3E80F08280A4457FD9023B3C4443EAA2
:100480000040A4EB0C04A0FB02EC64457346E1467B
:1004900062D35FD05DB1B8EB030264EB090404FAE8
:1004A00006F622FA01F31E43CC40C5E900640021A0
:1004B0004FE7B1FBF2FC010C41EA0E4180B240EA89
:1004C00001423B4638463C46B846BE462026B1FB74
:1004D000F7F1A2EB080241EA0C4166E7014618E792
:1004E00010462CE7C6F120022EFA02F3B740B140C5
:1004F00020FA02F24FEA174E0A43B3FBFEF8BCB2F1
:100500000EFB1833110C41EA034108FB04F9B0401B
:1005100089454FEA104380B23ED9791808F1FF3C73
:1005200001D289451FD8A1EB0901B1FBFEF909FBF6
:1005300004F80EFB191192B242EA0142424529D257
:10054000BA1809F1FF31C4D24245C2D2A9F1020161
:100550003A44BEE7F0459DD2BEEB02036CEB070CBC
:100560000138E14696E7A7EB09094944A8F1020CD6
:10057000B1FBFEF909FB04F8DBE773467FE7504661
:1005800066E70846FDE63B44023A33E7ACF1020C6D
:100590003B441CE749469CE7A1EB0901C446B1FB7B
:1005A000FEF909FB04F8C4E7704700BF80B500AF4F
:1005B00000224FF480510B4801F012FD00224FF44D
:1005C0000051084801F00CFD00224FF4804105481D
:1005D00001F006FD00224FF40041024801F000FD49
:1005E00000BF80BD0004024080B584B000AF7860D9
:1005F0007A68944B83FB02139910D317C91A0B46E0
:100600009B000B445B00D11A0B46BB737B688D4A81
:1006100082FB03129210DB17D21A8A4B83FB021360
:100620009910D317C91A0B469B000B445B00D11AD3
:100630000B467B737B68844A82FB03125211DB17E3
:10064000D21A804B83FB02139910D317C91A0B4699
:100650009B000B445B00D11A0B463B737B687B4AC3
:1006600082FB03129211DB17D21A764B83FB021323
:100670009910D317C91A0B469B000B445B00D11A83
:100680000B46FB720023FB73FFF790FF704B1B7848
:10069000032B23D801A252F823F000BFAD060008B7
:1006A000B9060008C5060008D1060008BB7B694AE8
:1006B00052F82330FB7311E07B7B664A52F82330FB
:1006C000FB730BE03B7B634A52F82330FB7305E07E
:1006D000FB7A604A52F82330FB7300BFFB7B03F0C8
:1006E0000103002B14BF01230023DBB21A464FF491
:1006F0008071594801F074FCFB7B03F00203002B6E
:1007000014BF01230023DBB21A464FF40071524894
:1007100001F066FCFB7B03F00403002B14BF0123F4
:100720000023DBB21A464FF480614B4801F058FCBD
:10073000FB7B03F00803002B14BF01230023DBB273
:100740001A464FF40061444801F04AFCFB7B03F079
:100750001003002B14BF01230023DBB21A464FF411
:1007600080513D4801F03CFCFB7B03F02003002B53
:1007700014BF01230023DBB21A464FF4007137483F
:1007800001F02EFCFB7B03F04003002B14BF012380
:100790000023DBB21A464FF48061304801F020FCA0
:1007A00097F90F30DBB2DB09DBB21A464FF4004198
:1007B000294801F015FC01220121284801F010FC14
:1007C00000220121254801F00BFC214B1B78032B53
:1007D00026D801A252F823F0E9070008F70700081D
:1007E000050800081308000801224FF480511B4837
:1007F00001F0F6FB14E001224FF40051174801F01C
:10080000EFFB0DE001224FF48041144801F0E8FBBA
:1008100006E001224FF40041104801F0E1FB00BF67
:100820000B4B1B780133DAB2094B1A70084B1B785B
:10083000032B02D9064B00221A7000BF1037BD46A9
:1008400080BD00BF676666661F85EB51D34D6210A1
:10085000E4010020000000200000024000040240EB
:1008600080B586B002AF0346FB71FB7923F00F031E
:10087000FB73FB791B01BB73FB7B43F00D03DBB206
:100880003B72FB7B43F00903DBB27B72BB7B43F023
:100890000D03DBB2BB72BB7B43F00903DBB2FB721F
:1008A0000F4B1B68DA680E4B1B6822F00102DA60FE
:1008B00007F108026423009304234021094801F052
:1008C00007FD074B1B68DA68054B1B6842F0010205
:1008D000DA60012001F0B2F800BF1037BD4680BDDC
:1008E0002C010020D800002080B586B002AF03465E
:1008F000FB71FB7923F00F03FB73FB791B01BB73C7
:10090000FB7B43F00403DBB23B72FB7B7B72BB7B64
:1009100043F00403DBB2BB72BB7BFB720F4B1B6863
:10092000DA680E4B1B6822F00102DA6007F1080258
:100930006423009304234021094801F0C9FC074BBC
:100940001B68DA68054B1B6842F00102DA6001207F
:1009500001F074F800BF1037BD4680BD2C010020A7
:10096000D800002080B500AF142001F067F83020D7
:10097000FFF7BAFF3020FFF7B7FF3220FFF7B4FFD1
:100980002820FFF7B1FF0120FFF7AEFF0C20FFF793
:10099000ABFF0620FFF7A8FF052001F04FF800BFCE
:1009A00080BD80B582B000AF786006E07B685A1CDD
:1009B0007A601B781846FFF753FF7B681B78002B83
:1009C000F4D100BF00BF0837BD4680BD80B500AF81
:1009D0000120FFF789FF642001F030F800BF80BDDF
:1009E00080B500AF0120FFF77FFF054B01221A7091
:1009F00001F018F80346034A136000BF80BD00BF32
:100A0000740100207801002080B584B000AF034657
:100A10000A46FB711346BB71FB79012B03D1BB79ED
:100A2000803BDBB202E0BB79403BDBB2FB73FB7B7C
:100A30001846FFF759FF00BF1037BD4680BD0000C4
:100A400080B400AF274B1A78274B1A70274B1A78BF
:100A5000254B5A70264B1A78234B9A70214B1A78E3
:100A6000214BDA70204B00221A711F4B214A9A60E9
:100A70001D4B02229A811C4B1E4A1A611A4B0422FA
:100A80009A82194B1B4A9A61174B08229A831A4B78
:100A90001A781A4B1A701A4B1A78184B5A70194B4D
:100AA0001A78164B9A70174B1A78144BDA70134B4E
:100AB00001221A71114B0F4A9A60104B10229A8131
:100AC0000E4B0C4A1A610D4B20229A820B4B094A9D
:100AD0009A610A4B4FF480729A8300BFBD465DF85D
:100AE000047B70472C000020980100202A00002081
:100AF00028000020000402402D000020B801002042
:100B00002B0000202900002080B586B000AF78605F
:100B10007B68012B25D1274B1B781A46254B5B7828
:100B200007F10800244902F0A5FF01210120FFF789
:100B30006BFF07F108031846FFF733FF1D4B9B7847
:100B40001A4607F108031D49184602F093FF0121D8
:100B50000220FFF759FF07F108031846FFF721FFAE
:100B600024E0174B1B781A46154B5B7807F10800F9
:100B7000114902F07FFF01210120FFF745FF07F136
:100B800008031846FFF70DFF0D4B9B781A4607F137
:100B900008030A49184602F06DFF01210220FFF701
:100BA00033FF07F108031846FFF7FBFE00BF1837B5
:100BB000BD4680BD98010020D0430008E4430008F2
:100BC000B801002080B582B000AF0346FB71984B9E
:100BD0001B78032B00F2278101A252F823F000BFFB
:100BE000F10B0008450C0008E10C0008770D000827
:100BF000FB79312B08D18E4B01221A70FFF7F0FEE2
:100C00008C4B01221A7007E1FB79322B08D1884BFB
:100C100002221A70FFF7E4FE864B01221A70FBE0F5
:100C2000FB792A2B40F0F880814B1B78002B40F099
:100C3000F380814B00221A70FFF7D2FE7D4B012218
:100C40001A70E9E0FB79312B0DD1794B03221A7030
:100C50007A4B7B4A1A607B4B7B4A92E80300186010
:100C60000433198029E0FB79322B0BD1704B03221E
:100C70001A70724B754A1A60724B754A07CA03C3E1
:100C80001A701AE0FB79332B0CD1694B03221A70CE
:100C90006A4B704A1A606B4B6F4A92E8030083E814
:100CA00003000AE0FB792A2B07D1614B00221A705E
:100CB000FFF796FE5F4B01221A705D4B1B78032BEA
:100CC00040F0AC80654B00221A70654B00221A7010
:100CD000FFF77CFEFFF784FE564B01221A709DE061
:100CE000FB79312B0DD1524B03221A70534B5D4AC5
:100CF0001A60544B544A92E8030018600433198078
:100D000029E0FB79322B0BD1494B03221A704B4B54
:100D1000554A1A604B4B4E4A07CA03C31A701AE071
:100D2000FB79332B0CD1424B03221A70434B4F4AB1
:100D30001A60444B484A92E8030083E803000AE043
:100D4000FB792A2B07D13A4B00221A70FFF748FE95
:100D5000384B01221A70364B1B78032B60D13F4B66
:100D600000221A703E4B00221A70FFF739FE314BF9
:100D700001221A7054E0FB792F2B1FD9FB79392BF4
:100D80001CD8374B1B78012B45D8344B1B781A469F
:100D9000920013445B00DAB2FB791344DBB2303BC0
:100DA000DAB22E4B1A702E4B1B780133DAB22C4B71
:100DB0001A70FB791846FFF753FD2CE0FB79452BA1
:100DC00030D1274B1B78002B04D01C4B1B68234AC7
:100DD00012781A70194B1B68194A934209D0174BA5
:100DE0001B681A4A934204D0144B1B68194A934259
:100DF00008D10F4B01221A70FFF7F2FD0D4B0122B3
:100E00001A7008E00A4B02221A70FFF7E9FD094B3D
:100E100001221A7006E005E000BF04E000BF02E016
:100E200000BF00E000BF00BF0837BD4680BD00BF67
:100E30007E0100207C0100207D0100208001002037
:100E40009801002084010020F0430008990100204F
:100E5000F84300089A01002004440008940100208F
:100E600095010020B8010020B9010020BA0100203E
:100E700080B582B000AF78607B68DB78002B0AD049
:100E80003E4B1B78012B06D07B68DB78013BDAB246
:100E90007B68DA706EE07B681B79022B26D0022B10
:100EA00064DC002B02D0012B40D05FE07B68012284
:100EB0001A717B689A787B68DA707B6898687B68BF
:100EC0009B890022194601F08BF87B6818697B68C2
:100ED0009B8A0022194601F083F87B6898697B6839
:100EE0009B8B0122194601F07BF83FE07B680022D2
:100EF0001A717B681A787B68DA707B6898697B68FE
:100F00009B8B0022194601F06BF87B6818697B689F
:100F10009B8A0022194601F063F87B6898687B6819
:100F20009B890122194601F05BF81FE07B680222D1
:100F30001A717B685A787B68DA707B6898687B687E
:100F40009B890022194601F04BF87B6898697B6801
:100F50009B8B0022194601F043F87B6818697B6877
:100F60009B8A0122194601F03BF800BF034B002287
:100F70001A7000BF00BF0837BD4680BDD9010020F0
:100F800080B582B000AF78607B681B68B3F1804F9A
:100F90004FD12A4B1B78002B0CBF01230023DAB260
:100FA000264B1B78012B0CBF01230023DBB213431C
:100FB000DBB2002B23D0224BDB781A46642302FBE2
:100FC00003F3204AD27813441846FFF70DFB1E4B5B
:100FD0001B6801331C4A13601B4B1B6841F28832AB
:100FE00093420CD1184B00221A600221174801F0DD
:100FF00010F81448FFF73CFF1148FFF739FF0F4B7B
:101000001B78022B15D1124B1B680133104A136059
:101010000F4B1B6841F2883293420AD10C4B0022DD
:101020001A6004210B4800F0F4FF2021094800F069
:10103000F0FF00BF0837BD4680BD00BF7D01002026
:10104000B801002098010020DC01002000080240C7
:10105000E00100200004024080B500AF144B1B7873
:10106000002B23D1FFF7ECFC114B01221A70012257
:101070000221104800F0B4FF002204210D4800F0C6
:10108000AFFF002208210B4800F0AAFF0022102128
:10109000084800F0A5FF00220421064800F0A0FF48
:1010A00001224FF48071034800F09AFF00BF80BD19
:1010B000D80100200004024080B584B000AF0023B6
:1010C000FB600EE0314AFB6852F82300304AFB68AF
:1010D00032F813300122194600F082FFFB68013319
:1010E000FB60FB68032BEDDD0023BB6046E0274A75
:1010F000BB6852F82300264ABB6832F8133000223E
:10110000194600F06DFF00237B6025E0214A7B68D3
:1011100052F8232020497B6831F8133019461046D5
:1011200000F046FF0346002B13D1184ABB6852F863
:101130002300174ABB6832F813300122194600F029
:101140004FFF164A7B689B001A44BB6813441B7808
:1011500018E07B6801337B607B68032BD6DD0B4A8C
:10116000BB6852F823000A4ABB6832F813300122E8
:10117000194600F035FFBB680133BB60BB68032B29
:10118000B5DD002318461037BD4680BD480000205D
:101190005800002030000020400000203C4400089F
:1011A00080B584B000AF00F0D7FB00F011F900F07B
:1011B000F3F900F077F900F0A3F90023FB730023A3
:1011C000FB710023BB60FFF747FFFFF7CBFBFFF787
:1011D00007FC704B01221A706F4802F067F86F4BE2
:1011E0001B78002B57D000F01DFC02466C4B1B688F
:1011F000D31A012B4FD9674B1B78002B4BD0694B6F
:101200001B78002B06D101210120FFF7FDFB66486A
:10121000FFF7C7FB634B1B78012B2ED1634B1B7869
:10122000032B2AD801A252F823F000BF3D12000878
:101230005B120008631200086B12000801210120F4
:10124000FFF7E2FB5A48FFF7ACFB01210220FFF752
:10125000DBFB5848FFF7A5FB0FE00120FFF754FC2C
:101260000BE00220FFF750FC07E001210120FFF70F
:10127000CBFB5148FFF795FB00BF4A4B1B78022B75
:1012800006D101210120FFF7BFFB4C48FFF789FB86
:10129000404B00221A7000F0C5FB0246BB68D31A0F
:1012A000312B9CD9FFF708FF0346FB71FB79002B1C
:1012B00065D0FA79FB7B9A4261D0FB794D2B56D1F0
:1012C000384B1B78002B0BD1364B01221A70374B51
:1012D00000221A70FFF784FB2E4B01221A704EE099
:1012E000304B1B78012B29D12E4B02221A70FFF7AD
:1012F00077FB284B01221A70FFF758F900220221D0
:101300002F4800F06DFE002208212D4800F068FEF5
:10131000002210212A4800F063FE00224FF4807161
:10132000274800F05DFE00220421254800F058FE09
:1013300000222021224800F053FE20E0194B1B78A8
:10134000022B1CD1174B00221A70FFF749FB114BDF
:1013500001221A701B4B01221A701B48FFF788FDEF
:10136000184B01221A701948FFF782FD07E00D4B58
:101370001B78012B03D1FB791846FFF723FCFB797F
:10138000FB73FB79002B3FF42AAF00F04BFBB860F6
:1013900025E700BF7C0100202C0100207401002003
:1013A000780100207D0100200C4400087E0100200F
:1013B0001844000824440008840100203044000838
:1013C00000040240D901002098010020B80100204B
:1013D00080B594B000AF07F12003302200211846F9
:1013E00002F06AFB07F10C0300221A605A609A604F
:1013F000DA601A610023BB60284B1B6C274A43F05C
:1014000080531364254B1B6C03F08053BB60BB6897
:1014100000237B60224B1B6823F44043204A43F4A3
:10142000004313601E4B1B6803F440437B607B68E2
:1014300002233B620123FB6210233B630223BB6355
:101440000023FB6308233B6432237B640223BB64D9
:101450000423FB6407F12003184601F093FA0346C6
:10146000002B01D000F030F90F23FB6002233B6119
:1014700080237B614FF48053BB610023FB6107F144
:101480000C030021184601F0F5FC0346002B01D0A7
:1014900000F01AF900BF5037BD4680BD0038024049
:1014A0000070004080B500AF124B134A1A60114B18
:1014B000124A5A600F4B00229A600E4B0022DA60EB
:1014C0000C4B4FF480421A610A4B00225A61094BBF
:1014D00000229A61074B0022DA61064B00221A6251
:1014E000044800F0B1FD0346002B01D000F0ECF8F9
:1014F00000BF80BDD800002000540040A08601003D
:1015000080B586B000AF07F1080300221A605A6068
:101510009A60DA603B4600221A605A601D4B4FF019
:1015200080421A601B4B31225A601A4B00229A608B
:10153000184B0922DA60174B00221A61154B002262
:101540009A61144801F062FE0346002B01D000F0BE
:10155000BBF84FF48053BB6007F1080319460D48F0
:1015600001F0F6FF0346002B01D000F0ADF8002398
:101570003B6000237B603B461946064802F0F8F9C1
:101580000346002B01D000F09FF800BF1837BD467E
:1015900080BD00BF2C01002080B58AB000AF07F1EC
:1015A000140300221A605A609A60DA601A610023FC
:1015B0003B61414B1B6B404A43F0800313633E4B3E
:1015C0001B6B03F080033B613B690023FB603A4BDC
:1015D0001B6B394A43F004031363374B1B6B03F057
:1015E0000403FB60FB680023BB60334B1B6B324A78
:1015F00043F001031363304B1B6B03F00103BB602B
:10160000BB6800237B602C4B1B6B2B4A43F002030F
:101610001363294B1B6B03F002037B607B68002282
:101620000F21264800F0DCFC00224FF6F071244820
:1016300000F0D6FC00224FF23F71224800F0D0FCAF
:101640000F237B610123BB610023FB6100233B620D
:1016500007F114031946194800F026FB0F237B619C
:101660000023BB610123FB6107F1140319461448F1
:1016700000F01AFB4FF6F0737B610123BB6100237E
:10168000FB6100233B6207F1140319460C4800F08C
:101690000BFB4FF23F737B610123BB610023FB61B6
:1016A00000233B6207F114031946064800F0FCFAD8
:1016B00000BF2837BD4680BD003802400008024008
:1016C000000002400004024080B400AF72B600BFC8
:1016D00000BFFDE780B483B000AF00237B60104BF8
:1016E0005B6C0F4A43F4804353640D4B5B6C03F413
:1016F00080437B607B6800233B60094B1B6C084A7E
:1017000043F080531364064B1B6C03F080533B6023
:101710003B6800BF0C37BD465DF8047B704700BFD7
:101720000038024080B58AB000AF786007F114033A
:1017300000221A605A609A60DA601A617B681B683E
:10174000194A93422BD100233B61184B1B6B174A5C
:1017500043F002031363154B1B6B03F002033B6161
:101760003B69C0237B611223BB610123FB6103231F
:101770003B6204237B6207F1140319460C4800F016
:1017800093FA0023FB60094B1B6C084A43F40013D7
:101790001364064B1B6C03F40013FB60FB6800BF73
:1017A0002837BD4680BD00BF0054004000380240CD
:1017B0000004024080B584B000AF78607B681B688D
:1017C000B3F1804F15D10023FB600C4B1B6C0B4A0F
:1017D00043F001031364094B1B6C03F00103FB602E
:1017E000FB68002200211C2000F027FA1C2000F0DA
:1017F00040FA00BF1037BD4680BD00BF0038024030
:1018000080B400AF00BFFDE780B400AF00BFFDE7CC
:1018100080B400AF00BFFDE780B400AF00BFFDE7BC
:1018200080B400AF00BFFDE780B400AF00BFBD468D
:101830005DF8047B704780B400AF00BFBD465DF823
:10184000047B704780B400AF00BFBD465DF8047BE9
:10185000704780B500AF00F0D1F800BF80BD000038
:1018600080B500AF024801F083FD00BF80BD00BF1E
:101870002C01002080B586B000AF7860144A154B6B
:10188000D31A7B617B693B61134B1B68002B02D130
:10189000114B124A1A60104B1A687B6813443A695C
:1018A0009A4207D202F010F903460C221A604FF058
:1018B000FF3309E0084B1B68FB60074B1A687B6825
:1018C0001344054A1360FB6818461837BD4680BDAF
:1018D0000080012000040000E801002038030020FF
:1018E00080B400AF064BD3F88830054A43F4700348
:1018F000C2F8883000BFBD465DF8047B704700BF6A
:1019000000ED00E0DFF834D0FFF7EAFF0C480D49A6
:101910000D4A002302E0D458C4500433C4188C424A
:10192000F9D30A4A0A4C002301E013600432A242B0
:10193000FBD302F0CFF8FFF733FC704700800120A3
:1019400000000020BC000020A8440008BC000020CB
:1019500038030020FEE7000080B500AF0E4B1B6887
:101960000D4A43F4007313600B4B1B680A4A43F49F
:1019700080631360084B1B68074A43F4807313604D
:10198000032000F04FF90F2000F008F8FFF7A2FE47
:101990000023184680BD00BF003C024080B582B0E5
:1019A00000AF7860124B1A68124B1B7819464FF43F
:1019B0007A73B3FBF1F3B2FBF3F3184600F067F967
:1019C0000346002B01D001230EE07B680F2B0AD8C1
:1019D000002279684FF0FF3000F02FF9064A7B684B
:1019E0001360002300E0012318460837BD4680BD80
:1019F00060000020680000206400002080B400AF78
:101A0000064B1B781A46064B1B681344044A1360A6
:101A100000BFBD465DF8047B704700BF6800002032
:101A2000EC01002080B400AF034B1B681846BD4694
:101A30005DF8047B704700BFEC01002080B584B0E6
:101A400000AF7860FFF7EEFFB8607B68FB60FB6873
:101A5000B3F1FF3F05D00A4B1B781A46FB681344CD
:101A6000FB6000BFFFF7DEFF0246BB68D31AFA68CF
:101A70009A42F7D800BF00BF1037BD4680BD00BFF7
:101A80006800002080B485B000AF78607B6803F008
:101A90000703FB600C4BDB68BB60BA684FF6FF03C3
:101AA0001340BB60FB681A02BB68134343F0BF637B
:101AB00043F40033BB60044ABB68D36000BF1437F3
:101AC000BD465DF8047B704700ED00E080B400AFD8
:101AD000044BDB681B0A03F007031846BD465DF89C
:101AE000047B704700ED00E080B483B000AF034694
:101AF000FB7197F90730002B0BDBFB7903F01F021A
:101B0000074997F907305B09012000FA02F241F812
:101B1000232000BF0C37BD465DF8047B704700BF33
:101B200000E100E080B483B000AF03463960FB7190
:101B300097F90730002B0ADB3B68DAB20C4997F9BA
:101B400007301201D2B20B4483F800230AE03B684D
:101B5000DAB20849FB7903F00F03043B1201D2B259
:101B60000B441A7600BF0C37BD465DF8047B704706
:101B700000E100E000ED00E080B489B000AFF86063
:101B8000B9607A60FB6803F00703FB61FB69C3F18E
:101B90000703042B28BF0423BB61FB690433062B16
:101BA00002D9FB69033B00E000237B614FF0FF3269
:101BB000BB6902FA03F3DA43BB681A407B699A40B7
:101BC0004FF0FF317B6901FA03F3D9437B680B4087
:101BD000134318462437BD465DF8047B7047000068
:101BE00080B582B000AF78607B68013BB3F1807F45
:101BF00001D301230FE00A4A7B68013B53600F21A8
:101C00004FF0FF30FFF78EFF054B00229A60044B28
:101C100007221A60002318460837BD4680BD00BF62
:101C200010E000E080B582B000AF78607868FFF720
:101C300029FF00BF0837BD4680BD80B586B000AF24
:101C40000346B9607A60FB7300237B61FFF73EFFB8
:101C500078617A68B9687869FFF78EFF024697F96C
:101C60000F3011461846FFF75DFF00BF1837BD461D
:101C700080BD80B582B000AF0346FB7197F9073095
:101C80001846FFF731FF00BF0837BD4680BD80B55D
:101C900082B000AF78607868FFF7A2FF034618466D
:101CA0000837BD4680BD000080B489B000AF7860C1
:101CB000396000237B6100233B610023BB6100236B
:101CC000FB6159E10122FB6902FA03F37B613B6886
:101CD0001B687A6913403B613A697B699A4240F01C
:101CE00048813B685B6803F00303012B05D03B6828
:101CF0005B6803F00303022B30D17B689B68BB61F8
:101D0000FB695B00032202FA03F3DB43BA69134069
:101D1000BB613B68DA68FB695B0002FA03F3BA69EE
:101D20001343BB617B68BA699A607B685B68BB617F
:101D30000122FB6902FA03F3DB43BA691340BB617A
:101D40003B685B681B0903F00102FB6902FA03F3BD
:101D5000BA691343BB617B68BA695A603B685B68C8
:101D600003F00303032B17D07B68DB68BB61FB69BF
:101D70005B00032202FA03F3DB43BA691340BB6141
:101D80003B689A68FB695B0002FA03F3BA69134384
:101D9000BB617B68BA69DA603B685B6803F0030388
:101DA000022B23D1FB69DA087B68083253F8223012
:101DB000BB61FB6903F007039B000F2202FA03F3E8
:101DC000DB43BA691340BB613B681A69FB6903F0E6
:101DD00007039B0002FA03F3BA691343BB61FB6973
:101DE000DA087B680832B96943F822107B681B68FF
:101DF000BB61FB695B00032202FA03F3DB43BA69B0
:101E00001340BB613B685B6803F00302FB695B0046
:101E100002FA03F3BA691343BB617B68BA691A60BB
:101E20003B685B6803F44033002B00F0A280002382
:101E3000FB60574B5B6C564A43F480435364544BEE
:101E40005B6C03F48043FB60FB68524AFB699B08B0
:101E5000023352F82330BB61FB6903F003039B009C
:101E60000F2202FA03F3DB43BA691340BB617B68BC
:101E7000494A934219D07B68484A934213D07B6801
:101E8000474A93420DD07B68464A934207D07B680D
:101E9000454A934201D1042308E0072306E00323C7
:101EA00004E0022302E0012300E00023FA6902F0CB
:101EB000030292009340BA691343BB613549FB6941
:101EC0009B080233BA6941F82320384B9B68BB61F9
:101ED0003B69DB43BA691340BB613B685B6803F451
:101EE0008013002B03D0BA693B691343BB612F4AAF
:101EF000BB6993602D4BDB68BB613B69DB43BA690F
:101F00001340BB613B685B6803F40013002B03D0F4
:101F1000BA693B691343BB61244ABB69D360234B55
:101F20005B68BB613B69DB43BA691340BB613B68DB
:101F30005B6803F40033002B03D0BA693B69134399
:101F4000BB611A4ABB695360184B1B68BB613B6994
:101F5000DB43BA691340BB613B685B6803F48033C1
:101F6000002B03D0BA693B691343BB610F4ABB69BD
:101F70001360FB690133FB61FB690F2B7FF6A2AE97
:101F800000BF00BF2437BD465DF8047B704700BF2B
:101F900000380240003801400000024000040240C6
:101FA00000080240000C024000100240003C0140CA
:101FB00080B485B000AF78600B467B807B681A697F
:101FC0007B881340002B02D00123FB7301E0002328
:101FD000FB73FB7B18461437BD465DF8047B7047E6
:101FE00080B483B000AF78600B467B8013467B7073
:101FF0007B78002B03D07A887B689A6103E07B882A
:102000001A047B689A6100BF0C37BD465DF8047BFB
:10201000704780B485B000AF78600B467B807B68EA
:102020005B69FB607A88FB6813401A04FB68D9433C
:102030007B880B401A437B689A6100BF1437BD460A
:102040005DF8047B7047000080B584B000AF786015
:102050007B68002B01D101232BE17B6893F83D3095
:10206000DBB2002B06D17B68002283F83C20786825
:10207000FFF758FB7B68242283F83D207B681B68B0
:102080001A687B681B6822F001021A607B681B6873
:102090001A687B681B6842F400421A607B681B6800
:1020A0001A687B681B6822F400421A6001F09AF8F3
:1020B000F8607B685B68814A934207D8FB68804A76
:1020C000934294BF01230023DBB206E0FB687D4A04
:1020D000934294BF01230023DBB2002B01D00123E4
:1020E000E7E0FB68784AA2FB03239B0CBB607B689C
:1020F0001B685B6823F03F017B681B68BA680A4372
:102100005A607B681B681B6A23F03F017B685B6831
:102110006A4A934202D8BB68013309E0BB684FF4B6
:10212000967202FB03F3694AA2FB03239B09013366
:102130007A6812680B4313627B681B68DB6923F4BF
:102140004F4222F0FF027B685B685C498B4219D8E2
:10215000FB68591E7B685B685B00B1FBF3F3591C9D
:1021600040F6FC730B40002B0AD0FB68591E7B68BD
:102170005B685B00B1FBF3F30133C3F30B0351E086
:1021800004234FE07B689B68002B11D1FB68581E2D
:102190007B6859680B465B000B44B0FBF3F30133DB
:1021A000C3F30B03002B0CBF01230023DBB212E0AF
:1021B000FB68581E7B6859680B469B000B449900CE
:1021C0000B44B0FBF3F30133C3F30B03002B0CBF41
:1021D00001230023DBB2002B01D0012322E07B6826
:1021E0009B68002B0ED1FB68581E7B6859680B4614
:1021F0005B000B44B0FBF3F30133C3F30B0343F475
:1022000000430FE0FB68581E7B6859680B469B0033
:102210000B4499000B44B0FBF3F30133C3F30B03FE
:1022200043F44043796809681343CB617B681B68BA
:102230001B6823F0C0017B68DA697B681B6A1A435C
:102240007B681B680A431A607B681B689B6823F4E1
:10225000034323F0FF037A6811697A68D268114357
:102260007A6812680B4393607B681B68DB6823F015
:10227000FF017B685A697B689B691A437B681B680E
:102280000A43DA607B681B681A687B681B6842F047
:1022900001021A607B6800221A647B68202283F89E
:1022A0003D207B6800221A637B68002283F83E2071
:1022B000002318461037BD4680BD00BFA086010030
:1022C0007F841E00FF083D0083DE1B43D34D621058
:1022D00080B588B002AFF8607A601A460B467B8101
:1022E00013463B81FFF79EFB7861FB6893F83D3016
:1022F000DBB2202B40F0E0807B69009319230122A0
:102300007049F86800F064F90346002B01D00223FD
:10231000D3E0FB6893F83C30012B01D10223CCE0E1
:10232000FB68012283F83C20FB681B681B6803F0F4
:102330000103012B07D0FB681B681A68FB681B6848
:1023400042F001021A60FB681B681A68FB681B6890
:1023500022F400621A60FB68212283F83D20FB68AA
:10236000102283F83E20FB6800221A64FB687A681A
:102370005A62FB683A895A85FB685B8D9AB2FB68A2
:102380001A85FB68504ADA6279897B693A6AF8688B
:1023900000F09CF80346002B01D001238DE00023C0
:1023A0003B61FB681B685B693B61FB681B689B6961
:1023B0003B613B6966E07A69396AF86800F022FAA5
:1023C0000346002B0DD0FB681B6C042B07D1FB6868
:1023D0001B681A68FB681B6842F400721A600123CC
:1023E0006BE0FB685B6A1A78FB681B681A61FB6824
:1023F0005B6A5A1CFB685A62FB685B8D9BB2013BAF
:102400009AB2FB685A85FB681B8D013B9AB2FB6848
:102410001A85FB681B685B6903F00403042B1BD15E
:10242000FB681B8D002B17D0FB685B6A1A78FB6872
:102430001B681A61FB685B6A5A1CFB685A62FB687E
:102440005B8D9BB2013B9AB2FB685A85FB681B8D82
:10245000013B9AB2FB681A857A69396AF86800F01C
:1024600019FA0346002B0DD0FB681B6C042B07D117
:10247000FB681B681A68FB681B6842F400721A60EC
:1024800001231AE0FB681B8D002B94D1FB681B68AD
:102490001A68FB681B6842F400721A60FB6820220D
:1024A00083F83D20FB68002283F83E20FB68002271
:1024B00083F83C20002300E0022318461837BD466D
:1024C00080BD00BF020010000000FFFF80B588B093
:1024D00002AFF8607A603B600B467B81FB68DB6A89
:1024E0007B617B69082B06D07B69012B03D07B695C
:1024F00013F5803F08D1FB681B681A68FB681B68EE
:1025000042F480721A600BE0FB681B6B122B07D140
:10251000FB681B681A68FB681B6842F480721A60CB
:102520003B6800937B6800224FF00111F86800F0CF
:102530004FF80346002B0DD0FB681B681B6803F4A3
:102540008073B3F5807F03D1FB684FF400721A6487
:10255000032335E0FB681B69B3F5804F08D17B8905
:10256000DBB21A46FB681B6802F0FE021A611BE030
:102570007B89DB11DBB203F00603DBB263F00F03F0
:10258000DAB2FB681B681A613B687A680E49F86822
:1025900000F098F80346002B01D0012310E07B895E
:1025A000DAB2FB681B681A613B687A680749F86809
:1025B00000F088F80346002B01D0012300E000233F
:1025C00018461837BD4680BD080001000200010012
:1025D00080B584B000AFF860B9603B601346FB7112
:1025E00048E03B68B3F1FF3F44D0FFF71BFA0246D7
:1025F000BB69D31A3A689A4202D33B68002B39D19F
:10260000BB681B0CDBB2012B0DD1FB681B685B693F
:10261000DA43BB6813409BB2002B0CBF012300239D
:10262000DBB21A460CE0FB681B689B69DA43BB68A7
:1026300013409BB2002B0CBF01230023DBB21A46D0
:10264000FB799A4216D1FB6800221A63FB682022AC
:1026500083F83D20FB68002283F83E20FB681B6C5A
:1026600043F02002FB681A64FB68002283F83C20D8
:10267000012323E0BB681B0CDBB2012B0DD1FB68EF
:102680001B685B69DA43BB6813409BB2002B0CBF2D
:1026900001230023DBB21A460CE0FB681B689B6930
:1026A000DA43BB6813409BB2002B0CBF012300230D
:1026B000DBB21A46FB799A4293D0002318461037B2
:1026C000BD4680BD80B584B000AFF860B9607A6067
:1026D0003B6071E0FB681B685B6903F48063B3F5E2
:1026E000806F23D1FB681B681A68FB681B6842F483
:1026F00000721A60FB681B686FF480625A61FB68A5
:1027000000221A63FB68202283F83D20FB68002228
:1027100083F83E20FB681B6C43F00402FB681A64DC
:10272000FB68002283F83C20012367E07B68B3F15B
:10273000FF3F41D0FFF776F902463B68D31A7A682B
:102740009A4202D37B68002B36D1BB681B0CDBB2EC
:10275000012B0CD1FB681B685B69DA43BB68134033
:102760009BB2002B14BF01230023DBB20BE0FB68FC
:102770001B689B69DA43BB6813409BB2002B14BFF4
:1027800001230023DBB2002B16D0FB6800221A6362
:10279000FB68202283F83D20FB68002283F83E205E
:1027A000FB681B6C43F02002FB681A64FB68002284
:1027B00083F83C20012321E0BB681B0CDBB2012B1A
:1027C0000CD1FB681B685B69DA43BB6813409BB2A2
:1027D000002B14BF01230023DBB20BE0FB681B6856
:1027E0009B69DA43BB6813409BB2002B14BF0123E3
:1027F0000023DBB2002B7FF46DAF002318461037A7
:10280000BD4680BD80B584B000AFF860B9607A6025
:1028100034E0F86800F086F80346002B01D001236D
:1028200034E0BB68B3F1FF3F28D0FFF7FBF8024666
:102830007B68D31ABA689A4202D3BB68002B1DD1B9
:10284000FB681B685B6903F08003802B16D0FB6874
:1028500000221A63FB68202283F83D20FB680022D7
:1028600083F83E20FB681B6C43F02002FB681A646F
:10287000FB68002283F83C20012307E0FB681B680B
:102880005B6903F08003802BC3D100231846103707
:10289000BD4680BD80B584B000AFF860B9607A6095
:1028A00034E0F86800F03EF80346002B01D0012325
:1028B00034E0BB68B3F1FF3F28D0FFF7B3F802461E
:1028C0007B68D31ABA689A4202D3BB68002B1DD129
:1028D000FB681B685B6903F00403042B16D0FB68DC
:1028E00000221A63FB68202283F83D20FB68002247
:1028F00083F83E20FB681B6C43F02002FB681A64DF
:10290000FB68002283F83C20012307E0FB681B687A
:102910005B6903F00403042BC3D10023184610376E
:10292000BD4680BD80B483B000AF78607B681B6813
:102930005B6903F48063B3F5806F1BD17B681B6810
:102940006FF480625A617B6800221A637B682022E0
:1029500083F83D207B68002283F83E207B681B6C57
:1029600043F004027B681A647B68002283F83C20F1
:10297000012300E0002318460C37BD465DF8047BB8
:102980007047000080B586B000AF78607B68002B90
:1029900001D1012367E27B681B6803F00103002B70
:1029A00075D0884B9B6803F00C03042B0CD0854B2F
:1029B0009B6803F00C03082B12D1824B5B6803F475
:1029C0008003B3F5800F0BD17E4B1B6803F40033FB
:1029D000002B5BD07B685B68002B57D1012342E260
:1029E0007B685B68B3F5803F06D1764B1B68754A00
:1029F00043F4803313601DE07B685B68B3F5A02F60
:102A00000CD1704B1B686F4A43F4802313606D4BED
:102A10001B686C4A43F4803313600BE0694B1B68FE
:102A2000684A23F480331360664B1B68654A23F4BD
:102A3000802313607B685B68002B13D0FEF7F2FFE6
:102A4000386108E0FEF7EEFF02463B69D31A642BBB
:102A500001D9032307E25B4B1B6803F40033002B0F
:102A6000F0D014E0FEF7DEFF386108E0FEF7DAFF91
:102A700002463B69D31A642B01D90323F3E1514B7E
:102A80001B6803F40033002BF0D100E000BF7B682B
:102A90001B6803F00203002B63D04A4B9B6803F0D2
:102AA0000C03002B0BD0474B9B6803F00C03082B47
:102AB0001CD1444B5B6803F48003002B16D1414BBF
:102AC0001B6803F00203002B05D07B68DB68012B39
:102AD00001D00123C7E13B4B1B6823F0F8027B6860
:102AE0001B69DB00374913430B603AE07B68DB6806
:102AF000002B20D0344B01221A60FEF793FF38617F
:102B000008E0FEF78FFF02463B69D31A022B01D97A
:102B10000323A8E12B4B1B6803F00203002BF0D02A
:102B2000284B1B6823F0F8027B681B69DB002549F2
:102B300013430B6015E0244B00221A60FEF772FF6E
:102B4000386108E0FEF76EFF02463B69D31A022B9C
:102B500001D9032387E11B4B1B6803F00203002B01
:102B6000F0D17B681B6803F00803002B36D07B682C
:102B70005B69002B16D0154B01221A60FEF752FF3D
:102B8000386108E0FEF74EFF02463B69D31A022B7C
:102B900001D9032367E10B4B5B6F03F00203002BAA
:102BA000F0D01BE0094B00221A60FEF73BFF3861B2
:102BB0000EE0FEF737FF02463B69D31A022B07D916
:102BC000032350E10038024000004742800E474294
:102BD000884B5B6F03F00203002BEAD17B681B6814
:102BE00003F00403002B00F097800023FB75814B5A
:102BF0001B6C03F08053002B0FD10023BB607D4B77
:102C00001B6C7C4A43F0805313647A4B1B6C03F0BB
:102C10008053BB60BB680123FB75774B1B6803F4D3
:102C20008073002B18D1744B1B68734A43F4807374
:102C30001360FEF7F7FE386108E0FEF7F3FE024688
:102C40003B69D31A022B01D903230CE16A4B1B68A1
:102C500003F48073002BF0D07B689B68012B06D1B6
:102C6000644B1B6F634A43F0010313671CE07B68EE
:102C70009B68052B0CD15F4B1B6F5E4A43F004032E
:102C800013675C4B1B6F5B4A43F0010313670BE058
:102C9000584B1B6F574A23F001031367554B1B6FAB
:102CA000544A23F0040313677B689B68002B15D0FC
:102CB000FEF7B8FE38610AE0FEF7B4FE02463B6953
:102CC000D31A41F28832934201D90323CBE0494B16
:102CD0001B6F03F00203002BEED014E0FEF7A2FE00
:102CE00038610AE0FEF79EFE02463B69D31A41F2C4
:102CF0008832934201D90323B5E03E4B1B6F03F0AA
:102D00000203002BEED1FB7D012B05D1394B1B6C4F
:102D1000384A23F0805313647B689B69002B00F0D2
:102D2000A180344B9B6803F00C03082B5CD07B68BC
:102D30009B69022B41D1314B00221A60FEF772FED3
:102D4000386108E0FEF76EFE02463B69D31A022B9B
:102D500001D9032387E0274B1B6803F00073002B86
:102D6000F0D17B68DA697B681B6A1A437B685B6A0F
:102D70009B011A437B689B6A5B08013B1B041A4357
:102D80007B68DB6A1B061B4913434B601B4B01220C
:102D90001A60FEF747FE386108E0FEF743FE024680
:102DA0003B69D31A022B01D903235CE0114B1B684A
:102DB00003F00073002BF0D054E0104B00221A6097
:102DC000FEF730FE386108E0FEF72CFE02463B6954
:102DD000D31A022B01D9032345E0064B1B6803F0ED
:102DE0000073002BF0D13DE07B689B69012B07D17C
:102DF000012338E000380240007000406000474284
:102E00001B4B5B68FB607B689B69012B28D0FB68D0
:102E100003F480027B68DB699A4221D1FB6803F0EE
:102E20003F027B681B6A9A421AD1FA6847F6C07360
:102E300013407A68526A9201934211D1FB6803F4FD
:102E400040327B689B6A5B08013B1B049A4207D1B6
:102E5000FB6803F070627B68DB6A1B069A4201D054
:102E6000012300E0002318461837BD4680BD00BF8F
:102E70000038024080B584B000AF786039607B686C
:102E8000002B01D10123CCE0684B1B6803F0070342
:102E90003A689A420CD9654B3A68D2B21A70634BC1
:102EA0001B6803F007033A689A4201D00123B8E097
:102EB0007B681B6803F00203002B20D07B681B6833
:102EC00003F00403002B05D0594B9B68584A43F488
:102ED000E05393607B681B6803F00803002B05D068
:102EE000534B9B68524A43F460439360504B9B683A
:102EF00023F0F0027B689B684D4913438B607B682D
:102F00001B6803F00103002B44D07B685B68012B36
:102F100007D1474B1B6803F40033002B19D1012361
:102F20007FE07B685B68022B03D07B685B68032BC8
:102F300007D13F4B1B6803F00073002B09D101231D
:102F40006FE03B4B1B6803F00203002B01D1012310
:102F500067E0374B9B6823F003027B685B6834496A
:102F600013438B60FEF75EFDF8600AE0FEF75AFD42
:102F70000246FB68D31A41F28832934201D90323F7
:102F80004FE02B4B9B6803F00C027B685B689B0057
:102F90009A42EBD1254B1B6803F007033A689A422B
:102FA0000CD2224B3A68D2B21A70204B1B6803F045
:102FB00007033A689A4201D0012332E07B681B681C
:102FC00003F00403002B08D0194B9B6823F4E05254
:102FD0007B68DB68164913438B607B681B6803F0D2
:102FE0000803002B09D0124B9B6823F460427B68D6
:102FF0001B69DB000E4913438B6000F021F8024689
:103000000B4B9B681B0903F00F030A49CB5C22FAA8
:1030100003F3094A1360094B1B681846FEF7BEFC10
:10302000002318461037BD4680BD00BF003C02405B
:10303000003802404C44000860000020640000207A
:103040002DE9B04F90B000AF00237B630023FB63FA
:1030500000233B630023BB63594B9B6803F00C03C5
:10306000082B0DD0082B00F2A180002B02D0042BDE
:1030700003D09BE0534BBB639BE0534BBB6398E097
:103080004F4B5B6803F03F037B634D4B5B6803F47E
:103090008003002B28D04A4B5B689B0900223B62CF
:1030A0007A623B6AC3F308000021474B03FB01F23D
:1030B000002300FB03F31344434AA0FB0212FA620D
:1030C0000A46BA62FA6A1344FB627B6B0022BB6158
:1030D000FA61D7E90623D7E90A01FDF7D1F80246DC
:1030E0000B461346FB6353E0354B5B689B0900229C
:1030F0003B617A613B69C3F3080A4FF0000B52460B
:103100005B464FF000004FF00001590141EAD261E7
:10311000500102460B46B2EB0A0863EB0B094FF075
:1031200000024FF000034FEA891343EA98634FEA25
:103130008812B2EB080463EB09054FF000024FF070
:103140000003EB0043EA5473E20014461D4614EBFF
:103150000A033B6045EB0B037B604FF000024FF02E
:103160000003D7E9004529468B02214643EA9153E3
:1031700021468A02104619467B6B0022BB60FA602A
:10318000D7E90223FDF77CF802460B461346FB63A2
:103190000B4B5B681B0C03F0030301335B003B63C9
:1031A000FA6B3B6BB2FBF3F3BB6302E0054BBB6313
:1031B00000BFBB6B18464037BD46BDE8B08F00BFAF
:1031C000003802400024F40040787D0180B400AF54
:1031D000034B1B681846BD465DF8047B704700BF73
:1031E0006000002080B500AFFFF7F0FF0246054BFE
:1031F0009B689B0A03F007030349CB5C22FA03F3A5
:10320000184680BD003802405C44000880B582B09A
:1032100000AF78607B68002B01D1012341E07B681F
:1032200093F83D30DBB2002B06D17B68002283F897
:103230003C207868FEF7BEFA7B68022283F83D20C6
:103240007B681A687B6804331946104600F070FAF0
:103250007B68012283F846207B68012283F83E20A8
:103260007B68012283F83F207B68012283F840209D
:103270007B68012283F841207B68012283F8422089
:103280007B68012283F843207B68012283F8442075
:103290007B68012283F845207B68012283F83D206A
:1032A000002318460837BD4680BD000080B485B0B5
:1032B00000AF78607B6893F83D30DBB2012B01D022
:1032C000012344E07B68022283F83D207B681B6871
:1032D000DA687B681B6842F00102DA607B681B6871
:1032E0001E4A934218D07B681B68B3F1804F13D0FD
:1032F0007B681B681A4A93420ED07B681B68194A88
:10330000934209D07B681B68174A934204D07B68BC
:103310001B68164A934211D17B681B689B6803F0B7
:103320000703FB60FB68062B10D07B681B681A68DC
:103330007B681B6842F001021A6007E07B681B682B
:103340001A687B681B6842F001021A600023184665
:103350001437BD465DF8047B704700BF0000014094
:103360000004004000080040000C00400040014004
:1033700080B584B000AF78607B681B68DB68FB6059
:103380007B681B681B69BB60BB6803F00203002BF2
:1033900020D0FB6803F00203002B1BD07B681B6866
:1033A0006FF002021A617B6801221A777B681B6842
:1033B0009B6903F00303002B03D0786800F099F9B0
:1033C00005E0786800F08BF9786800F09CF97B687C
:1033D00000221A77BB6803F00403002B20D0FB689F
:1033E00003F00403002B1BD07B681B686FF0040202
:1033F0001A617B6802221A777B681B689B6903F459
:103400004073002B03D0786800F073F905E078680A
:1034100000F065F9786800F076F97B6800221A7789
:10342000BB6803F00803002B20D0FB6803F00803FF
:10343000002B1BD07B681B686FF008021A617B6849
:1034400004221A777B681B68DB6903F00303002BF7
:1034500003D0786800F04DF905E0786800F03FF996
:10346000786800F050F97B6800221A77BB6803F097
:103470001003002B20D0FB6803F01003002B1BD09F
:103480007B681B686FF010021A617B6808221A774C
:103490007B681B68DB6903F44073002B03D07868FA
:1034A00000F027F905E0786800F019F9786800F075
:1034B0002AF97B6800221A77BB6803F00103002B0E
:1034C0000CD0FB6803F00103002B07D07B681B685E
:1034D0006FF001021A617868FDF752FDBB6803F0D6
:1034E0008003002B0CD0FB6803F08003002B07D077
:1034F0007B681B686FF080021A61786800F0B0FA90
:10350000BB6803F04003002B0CD0FB6803F04003C2
:10351000002B07D07B681B686FF040021A61786847
:1035200000F0FBF8BB6803F02003002B0CD0FB6815
:1035300003F02003002B07D07B681B686FF020028C
:103540001A61786800F082FA00BF1037BD4680BD6E
:1035500080B584B000AF786039600023FB737B686E
:1035600093F83C30012B01D10223B4E07B680122A7
:1035700083F83C207B68022283F83D207B681B682F
:103580009B68BB60BB6823F07703BB60BB6823F418
:103590007F43BB607B681B68BA689A603B681B68A6
:1035A000B3F5005F3ED0B3F5005F00F28780B3F55E
:1035B000805F00F08680B3F5805F7FD8702B1AD0D3
:1035C000702B7BD8602B50D0602B77D8502B3CD001
:1035D000502B73D8402B58D0402B6FD8302B64D051
:1035E000302B6BD8202B60D0202B67D8002B5CD0E1
:1035F000102B5AD062E07B6818683B6899683B687A
:103600005A683B68DB6800F093F97B681B689B682D
:10361000BB60BB6843F07703BB607B681B68BA681C
:103620009A604FE07B6818683B6899683B685A6805
:103630003B68DB6800F07CF97B681B689A687B68F4
:103640001B6842F480429A603CE07B6818683B68E3
:1036500059683B68DB681A4600F0F0F87B681B6825
:103660005021184600F049F92CE07B6818683B6847
:1036700059683B68DB681A4600F00FF97B681B68E5
:103680006021184600F039F91CE07B6818683B6837
:1036900059683B68DB681A4600F0D0F87B681B6805
:1036A0004021184600F029F90CE07B681A683B6855
:1036B0001B681946104600F020F903E00123FB7354
:1036C00000E000BF7B68012283F83D207B68002278
:1036D00083F83C20FB7B18461037BD4680BD80B484
:1036E00083B000AF786000BF0C37BD465DF8047B47
:1036F000704780B483B000AF786000BF0C37BD4620
:103700005DF8047B704780B483B000AF786000BF81
:103710000C37BD465DF8047B704780B483B000AFC2
:10372000786000BF0C37BD465DF8047B7047000031
:1037300080B485B000AF786039607B681B68FB603F
:103740007B68374A93420FD07B68B3F1804F0BD030
:103750007B68344A934207D07B68334A934203D054
:103760007B68324A934208D1FB6823F07003FB6008
:103770003B685B68FA681343FB607B68284A9342A6
:103780001BD07B68B3F1804F17D07B68254A9342EA
:1037900013D07B68244A93420FD07B68234A93421C
:1037A0000BD07B68224A934207D07B68214A934220
:1037B00003D07B68204A934208D1FB6823F440730E
:1037C000FB603B68DB68FA681343FB60FB6823F02F
:1037D00080023B685B691343FB603B689A687B68C7
:1037E000DA623B681A687B689A627B680C4A93428B
:1037F00003D13B681A697B681A637B681B6843F0D6
:1038000004027B681A607B6801225A617B68FA684F
:103810001A6000BF1437BD465DF8047B704700BFD7
:10382000000001400004004000080040000C00407F
:1038300000400140004401400048014080B487B08E
:1038400000AFF860B9607A60FB681B6A7B61FB6857
:103850001B6A23F00102FB681A62FB689B693B61EB
:103860003B6923F0F0033B617B681B013A6913431A
:103870003B617B6923F00A037B617A69BB68134370
:103880007B61FB683A699A61FB687A691A6200BFDA
:103890001C37BD465DF8047B704780B487B000AF2D
:1038A000F860B9607A60FB681B6A7B61FB681B6A21
:1038B00023F01002FB681A62FB689B693B613B695D
:1038C00023F470433B617B681B033A6913433B61FC
:1038D0007B6923F0A0037B61BB681B017A691343FA
:1038E0007B61FB683A699A61FB687A691A6200BF7A
:1038F0001C37BD465DF8047B704780B485B000AFCF
:10390000786039607B689B68FB60FB6823F070031C
:10391000FB603A68FB68134343F00703FB607B6876
:10392000FA689A6000BF1437BD465DF8047B7047A3
:1039300080B487B000AFF860B9607A603B60FB6824
:103940009B687B617B6923F47F437B613B681A0240
:103950007B681A43BB6813437A6913437B61FB6836
:103960007A699A6000BF1C37BD465DF8047B7047DA
:1039700080B485B000AF786039607B6893F83C30E4
:10398000012B01D1022350E07B68012283F83C2007
:103990007B68022283F83D207B681B685B68FB60C4
:1039A0007B681B689B68BB60FB6823F07003FB604F
:1039B0003B681B68FA681343FB607B681B68FA6806
:1039C0005A607B681B681C4A934218D07B681B684E
:1039D000B3F1804F13D07B681B68184A93420ED016
:1039E0007B681B68164A934209D07B681B68154A9E
:1039F000934204D07B681B68134A93420CD1BB6886
:103A000023F08003BB603B685B68BA681343BB600C
:103A10007B681B68BA689A607B68012283F83D2046
:103A20007B68002283F83C20002318461437BD46EB
:103A30005DF8047B704700BF0000014000040040B7
:103A400000080040000C00400040014080B483B0FA
:103A500000AF786000BF0C37BD465DF8047B70474F
:103A600080B483B000AF786000BF0C37BD465DF80E
:103A7000047B70470EB410B59DB01FAB029006904A
:103A80006FF000410A48079104910A4953F8042B4A
:103A90000591002402A9006801931B9400F094F999
:103AA000029B1C701DB0BDE8104003B0704700BF02
:103AB0006C0000200802FFFF02440346934200D13D
:103AC000704703F8011BF9E7014B1868704700BF06
:103AD0006C00002070B50D4D0D4C641BA410002629
:103AE000A64209D10B4D0C4C00F064FC641BA410E1
:103AF0000026A64205D170BD55F8043B9847013613
:103B0000EEE755F8043B98470136F2E7A044000879
:103B1000A0440008A0440008A4440008704770476F
:103B200038B50546002941D051F8043C0C1F002B44
:103B3000B8BFE41800F0E0F81D4A136833B96360B9
:103B400014602846BDE8384000F0DCB8A34208D92C
:103B5000206821188B4201BF19685B680918216031
:103B6000EDE71A465B680BB1A342FAD91168501809
:103B7000A0420BD120680144501883421160E0D16B
:103B800018685B68536008441060DAE702D90C23B8
:103B90002B60D6E7206821188B4204BF19685B6848
:103BA000636004BF091821605460CAE738BD00BFD4
:103BB0003403002070B50F4E0C463168054611B92C
:103BC00000F0A4FB30602146284600F09FFB431C18
:103BD00003D14FF0FF34204670BDC41C24F0030411
:103BE000A042F8D0211A284600F090FB0130F2D113
:103BF000EFE700BF300300202DE9F843CD1C25F08E
:103C0000030508350C2D38BF0C25002D064601DBB9
:103C1000A94204D90C2333600020BDE8F883DFF803
:103C2000D48000F069F8D8F800301C4644BB29461F
:103C30003046FFF7BFFF431C044658D1D8F8004078
:103C40002746002F43D1002C4BD0236839463046FD
:103C500004EB030900F05AFB814542D121686D1A3B
:103C600029463046FFF7A6FF01303AD023682B449F
:103C70002360D8F800305A6862BBC8F800700FE0C3
:103C80002268521B20D40B2A17D96119A342256040
:103C900018BF5960636808BFC8F8001062514B60D4
:103CA000304600F02FF804F10B00231D20F0070030
:103CB000C21A1CBF1B1AA350AFE76268A3420CBF15
:103CC000C8F800205A60EBE723466468AEE73C463C
:103CD0007F68B6E71A465B68A342FBD100235360B6
:103CE000DEE70C233360304600F00CF894E7056003
:103CF000D6E700BF340300200148FFF70FBF00BF25
:103D00002C0300200148FFF70ABF00BF2C0300204E
:103D10002DE9F0478E681F46BE420B6882460C466E
:103D200090462DD8B1F90C2012F4906F26D0656919
:103D3000096905EB4505A3EB010905EBD5757B1C6E
:103D40004B446D109D4238BF1D46530527D529466B
:103D5000FFF752FF064660B321694A4600F0E6FAD3
:103D6000A38923F4906343F08003A38126616561F6
:103D70004E44A5EB09052660A5603E46BE4200D92B
:103D80003E4620683246414600F0A6FAA3689B1BD7
:103D9000A3602368334423600020BDE8F0872A46EF
:103DA00000F0D2FA06460028E0D121695046FFF71C
:103DB000B7FE0C23CAF80030A38943F04003A38167
:103DC0004FF0FF30E9E700002DE9F04F98468B896E
:103DD0001B069DB007460D46144610D50B6973B9F6
:103DE0004021FFF709FF2860286130B90C233B60B0
:103DF0004FF0FF301DB0BDE8F08F40236B61002312
:103E0000099320238DF82930CDF80C803023DFF87A
:103E10009C818DF82A304FF0010923469A4613F809
:103E2000012B0AB1252AF9D1BAEB040B0BD05B4662
:103E3000224629463846FFF76BFF013000F0A78085
:103E4000099A5A4409929AF80030002B00F09F809A
:103E500000234FF0FF32CDE905230AF1010A049354
:103E600007938DF853301A935446052214F8011B1A
:103E70004E48FCF7B5F9049AD8B9D00644BF2023C0
:103E80008DF85330110744BF2B238DF853309AF827
:103E900000302A2B15D0079A544600204FF00A0C08
:103EA000214611F8013B303B092B4BD9B0B10792A9
:103EB00014E0A0EB080309FA03F313430493A246AA
:103EC000D2E7039B191D1B680391002BBBBF5B420C
:103ED00042F0020207930793B8BF049223782E2B77
:103EE0000AD163782A2B32D1039B1A1D1B680392D7
:103EF00043EAE37302340593DFF8C0A0217803227C
:103F00005046FCF76DF938B1049BA0EB0A00402243
:103F1000824013430134049314F8011B24488DF8A4
:103F200028100622FCF75CF9002836D0214B1BBB79
:103F3000039B073323F0070308330393099B3344A0
:103F400009936AE70CFB02320C460120A8E7002324
:103F50000134059319464FF00A0C204610F8012B46
:103F6000303A092A03D9002BC6D00591C4E70CFBCF
:103F7000012104460123F0E703AB00932A460E4BD0
:103F800004A93846AFF30080421C0646D6D1AB895F
:103F90005B063FF52DAF09982CE703AB00932A464B
:103FA000054B04A9384600F079F8EDE764440008B1
:103FB0006E44000800000000113D00086A4400083B
:103FC0002DE9F047164698468A680B69DDF820907F
:103FD0009342B8BF1346336091F8432007460C461E
:103FE0000AB1013333602368990642BF3368023354
:103FF0003360256815F0060506D104F1190AE36857
:1040000032689B1AAB4226DC94F843302268003BAE
:1040100018BF012392062BD404F1430241463846CF
:10402000C84701301ED02368226903F00603042B21
:1040300002BFE5683368ED1AA3680CBF25EAE57591
:1040400000259342C4BF9B1AED1800261A34B542CE
:104050001AD1002008E00123524641463846C8479D
:10406000013003D14FF0FF30BDE8F0870135C6E7DE
:10407000E1185A1C302081F84300224494F845107E
:1040800082F843100233C7E70123224641463846EF
:10409000C8470130E6D00136D9E700002DE9FF47D7
:1040A0000F7E0C9E782F914680460C469A4601F171
:1040B000430207D8622F0AD8002F00F0D180582F72
:1040C00000F0B88004F1420684F842703AE0A7F1AB
:1040D0006303152BF6D801A151F823F035410008F0
:1040E00049410008C5400008C5400008C540000817
:1040F000C540000849410008C5400008C540000807
:10410000C5400008C5400008474200087341000848
:1041100001420008C5400008C54000086942000887
:10412000C540000873410008C5400008C5400008AC
:104130000942000833681A1D1B68326004F1420608
:1041400084F8423001239CE033682068191D3160F7
:10415000060601D51D6803E04506FBD5B3F90050FE
:10416000002D03DA2D236D4284F8433058480A238A
:1041700011E021683368080653F8045B02D449064D
:1041800048BFADB26F2F5248336014BF0A230823D3
:10419000002184F843106668A660002E05DB2168C4
:1041A0002E4321F0040121604BD01646B5FBF3F1FC
:1041B00003FB1157C75D06F8017D2F46BB420D4634
:1041C000F4D9082B0BD12368DF0708D52369616870
:1041D0009942DEBF302306F8013C06F1FF36921B00
:1041E0002261CDF800A04B4603AA21464046FFF7C6
:1041F000E7FE01304AD14FF0FF3004B0BDE8F08750
:10420000236843F0200323603248782784F8457000
:10421000236831681F0651F8045B02D45F0648BF6B
:10422000ADB23160D90744BF43F0200323601DB114
:104230001023ADE72648E9E7236823F02003236035
:10424000F6E71646BDE7336825686169181D3060DA
:104250002E061B6801D5196002E06806FBD519809F
:10426000002323611646BCE733681A1D32601E68BE
:10427000626800213046FBF7B3FF08B1801B606025
:1042800063682361002384F84330AAE72369324638
:1042900049464046D0470130ADD023689B0713D430
:1042A000E068039B9842B8BF1846A6E70123324650
:1042B00049464046D04701309DD00135E368039917
:1042C0005B1AAB42F2DCEBE7002504F11906F5E7D7
:1042D0007544000886440008884210B501EB0204CA
:1042E00002D98442234607D8431EA14208D011F8C0
:1042F000012B03F8012FF8E7024401468A4200D15E
:1043000010BD13F8014D02F8014DF7E738B5064D21
:104310000023044608462B60FDF7ACFA431C02D18B
:104320002B6803B1236038BD280300200A44914262
:1043300000F1FF3300D1704710B511F8014B03F8BD
:10434000014F9142F9D110BD2DE9F04107461446C5
:104350000D4621B9BDE8F0411146FFF74DBC2AB921
:10436000FFF7DEFB25462846BDE8F08100F01AF88D
:104370008442064602D8B4EB500FF4D821463846A2
:10438000FFF73AFC804608B94546ECE7B4422246BE
:10439000294628BF3246FFF7C9FF29463846FFF7AE
:1043A000BFFBF1E751F8043C181F002BBCBF0B58B2
:1043B000C0187047F8B500BFF8BC08BC9E467047EF
:0C43C000F8B500BFF8BC08BC9E46704772
:1043CC0025640000312E523A2530326420322E59A9
:1043DC003A25303264000000332E473A25303264DF
:1043EC00000000005265643A2000000059656C6CB6
:1043FC006F773A2000000000477265656E3A200026
:10440C004E6F726D616C206D6F646500312E204CA7
:10441C006967687431000000322E204C696768743B
:10442C003200000053616665206D6F64650000000A
:10443C003738394D3435362A3132332D4330452B0C
:10444C000000000000000000010203040607080938
:10445C000000000001020304232D302B2000686CA7
:10446C004C0065666745464700303132333435368B
:10447C0037383941424344454600303132333435C4
:0C448C00363738396162636465660000F1
:0844980048BDFF7F0100000098
:0444A000C50100084A
:0444A400A10100086A
:1044A800C0000000F9000000A4000000B0000000F7
:1044B800990000009200000082000000F80000004F
:1044C8008000000090000000040702020B090000B1
:1044D80000000240000002400000024000000240CC
:1044E8000100020004000800000002400000024031
:1044F8000000024000000240100020004000800040
:104508000024F400100000000100000070000020EA
:1045180000000000F001002058020020C002002026
:104528000000000000000000000000000000000083
:104538000000000000000000000000000000000073
:104548000000000000000000000000000000000063
:0C45580000000000000000000000000057
:0400000508001905D1
:00000001FF
